{
  "contractName": "AddressBook",
  "abi": [
    {
      "constant": false,
      "inputs": [
        {
          "name": "_newAddress",
          "type": "address"
        },
        {
          "name": "dName",
          "type": "string"
        },
        {
          "name": "_despriction",
          "type": "string"
        },
        {
          "name": "__type",
          "type": "string"
        }
      ],
      "name": "registerName",
      "outputs": [
        {
          "name": "",
          "type": "uint256"
        }
      ],
      "payable": false,
      "stateMutability": "nonpayable",
      "type": "function"
    },
    {
      "constant": false,
      "inputs": [
        {
          "name": "index",
          "type": "uint256"
        },
        {
          "name": "__type",
          "type": "string"
        }
      ],
      "name": "searchByIndex",
      "outputs": [
        {
          "name": "",
          "type": "address"
        },
        {
          "name": "",
          "type": "string"
        },
        {
          "name": "",
          "type": "string"
        },
        {
          "name": "",
          "type": "string"
        }
      ],
      "payable": false,
      "stateMutability": "nonpayable",
      "type": "function"
    },
    {
      "constant": true,
      "inputs": [
        {
          "name": "a",
          "type": "string"
        },
        {
          "name": "b",
          "type": "string"
        }
      ],
      "name": "compareStrings",
      "outputs": [
        {
          "name": "",
          "type": "bool"
        }
      ],
      "payable": false,
      "stateMutability": "view",
      "type": "function"
    }
  ],
  "bytecode": "0x608060405234801561001057600080fd5b50611a9e806100206000396000f300608060405260043610610057576000357c0100000000000000000000000000000000000000000000000000000000900463ffffffff16806320f8cb681461005c57806324af861b14610185578063bed34bba1461037c575b600080fd5b34801561006857600080fd5b5061016f600480360381019080803573ffffffffffffffffffffffffffffffffffffffff169060200190929190803590602001908201803590602001908080601f0160208091040260200160405190810160405280939291908181526020018383808284378201915050505050509192919290803590602001908201803590602001908080601f0160208091040260200160405190810160405280939291908181526020018383808284378201915050505050509192919290803590602001908201803590602001908080601f0160208091040260200160405190810160405280939291908181526020018383808284378201915050505050509192919290505050610443565b6040518082815260200191505060405180910390f35b34801561019157600080fd5b506101f660048036038101908080359060200190929190803590602001908201803590602001908080601f0160208091040260200160405190810160405280939291908181526020018383808284378201915050505050509192919290505050610b05565b604051808573ffffffffffffffffffffffffffffffffffffffff1673ffffffffffffffffffffffffffffffffffffffff168152602001806020018060200180602001848103845287818151815260200191508051906020019080838360005b83811015610270578082015181840152602081019050610255565b50505050905090810190601f16801561029d5780820380516001836020036101000a031916815260200191505b50848103835286818151815260200191508051906020019080838360005b838110156102d65780820151818401526020810190506102bb565b50505050905090810190601f1680156103035780820380516001836020036101000a031916815260200191505b50848103825285818151815260200191508051906020019080838360005b8381101561033c578082015181840152602081019050610321565b50505050905090810190601f1680156103695780820380516001836020036101000a031916815260200191505b5097505050505050505060405180910390f35b34801561038857600080fd5b50610429600480360381019080803590602001908201803590602001908080601f0160208091040260200160405190810160405280939291908181526020018383808284378201915050505050509192919290803590602001908201803590602001908080601f01602080910402602001604051908101604052809392919081815260200183838082843782019150505050505091929192905050506118f4565b604051808215151515815260200191505060405180910390f35b6000610484826040805190810160405280600481526020017f55736572000000000000000000000000000000000000000000000000000000008152506118f4565b1561059c5760026080604051908101604052808773ffffffffffffffffffffffffffffffffffffffff168152602001868152602001848152602001858152509080600181540180825580915050906001820390600052602060002090600402016000909192909190915060008201518160000160006101000a81548173ffffffffffffffffffffffffffffffffffffffff021916908373ffffffffffffffffffffffffffffffffffffffff16021790555060208201518160010190805190602001906105519291906119cd565b50604082015181600201908051906020019061056e9291906119cd565b50606082015181600301908051906020019061058b9291906119cd565b505050506002805490509050610afd565b6105db826040805190810160405280600881526020017f45786368616e67650000000000000000000000000000000000000000000000008152506118f4565b156106f35760006080604051908101604052808773ffffffffffffffffffffffffffffffffffffffff168152602001868152602001848152602001858152509080600181540180825580915050906001820390600052602060002090600402016000909192909190915060008201518160000160006101000a81548173ffffffffffffffffffffffffffffffffffffffff021916908373ffffffffffffffffffffffffffffffffffffffff16021790555060208201518160010190805190602001906106a89291906119cd565b5060408201518160020190805190602001906106c59291906119cd565b5060608201518160030190805190602001906106e29291906119cd565b505050506000805490509050610afd565b610732826040805190810160405280600581526020017f4d696e65720000000000000000000000000000000000000000000000000000008152506118f4565b1561084a5760016080604051908101604052808773ffffffffffffffffffffffffffffffffffffffff168152602001868152602001848152602001858152509080600181540180825580915050906001820390600052602060002090600402016000909192909190915060008201518160000160006101000a81548173ffffffffffffffffffffffffffffffffffffffff021916908373ffffffffffffffffffffffffffffffffffffffff16021790555060208201518160010190805190602001906107ff9291906119cd565b50604082015181600201908051906020019061081c9291906119cd565b5060608201518160030190805190602001906108399291906119cd565b505050506001805490509050610afd565b610889826040805190810160405280600581526020017f546f6b656e0000000000000000000000000000000000000000000000000000008152506118f4565b156109a15760046080604051908101604052808773ffffffffffffffffffffffffffffffffffffffff168152602001868152602001848152602001858152509080600181540180825580915050906001820390600052602060002090600402016000909192909190915060008201518160000160006101000a81548173ffffffffffffffffffffffffffffffffffffffff021916908373ffffffffffffffffffffffffffffffffffffffff16021790555060208201518160010190805190602001906109569291906119cd565b5060408201518160020190805190602001906109739291906119cd565b5060608201518160030190805190602001906109909291906119cd565b505050506004805490509050610afd565b6109e0826040805190810160405280600481526020017f44617070000000000000000000000000000000000000000000000000000000008152506118f4565b15610af85760036080604051908101604052808773ffffffffffffffffffffffffffffffffffffffff168152602001868152602001848152602001858152509080600181540180825580915050906001820390600052602060002090600402016000909192909190915060008201518160000160006101000a81548173ffffffffffffffffffffffffffffffffffffffff021916908373ffffffffffffffffffffffffffffffffffffffff1602179055506020820151816001019080519060200190610aad9291906119cd565b506040820151816002019080519060200190610aca9291906119cd565b506060820151816003019080519060200190610ae79291906119cd565b505050506003805490509050610afd565b600090505b949350505050565b60006060806060610b4b856040805190810160405280600481526020017f55736572000000000000000000000000000000000000000000000000000000008152506118f4565b15610dd257600286815481101515610b5f57fe5b906000526020600020906004020160000160009054906101000a900473ffffffffffffffffffffffffffffffffffffffff16600287815481101515610ba057fe5b9060005260206000209060040201600101600288815481101515610bc057fe5b9060005260206000209060040201600201600289815481101515610be057fe5b9060005260206000209060040201600301828054600181600116156101000203166002900480601f016020809104026020016040519081016040528092919081815260200182805460018160011615610100020316600290048015610c865780601f10610c5b57610100808354040283529160200191610c86565b820191906000526020600020905b815481529060010190602001808311610c6957829003601f168201915b50505050509250818054600181600116156101000203166002900480601f016020809104026020016040519081016040528092919081815260200182805460018160011615610100020316600290048015610d225780601f10610cf757610100808354040283529160200191610d22565b820191906000526020600020905b815481529060010190602001808311610d0557829003601f168201915b50505050509150808054600181600116156101000203166002900480601f016020809104026020016040519081016040528092919081815260200182805460018160011615610100020316600290048015610dbe5780601f10610d9357610100808354040283529160200191610dbe565b820191906000526020600020905b815481529060010190602001808311610da157829003601f168201915b5050505050905093509350935093506118eb565b610e11856040805190810160405280600881526020017f45786368616e67650000000000000000000000000000000000000000000000008152506118f4565b1561109857600086815481101515610e2557fe5b906000526020600020906004020160000160009054906101000a900473ffffffffffffffffffffffffffffffffffffffff16600087815481101515610e6657fe5b9060005260206000209060040201600101600088815481101515610e8657fe5b9060005260206000209060040201600201600089815481101515610ea657fe5b9060005260206000209060040201600301828054600181600116156101000203166002900480601f016020809104026020016040519081016040528092919081815260200182805460018160011615610100020316600290048015610f4c5780601f10610f2157610100808354040283529160200191610f4c565b820191906000526020600020905b815481529060010190602001808311610f2f57829003601f168201915b50505050509250818054600181600116156101000203166002900480601f016020809104026020016040519081016040528092919081815260200182805460018160011615610100020316600290048015610fe85780601f10610fbd57610100808354040283529160200191610fe8565b820191906000526020600020905b815481529060010190602001808311610fcb57829003601f168201915b50505050509150808054600181600116156101000203166002900480601f0160208091040260200160405190810160405280929190818152602001828054600181600116156101000203166002900480156110845780601f1061105957610100808354040283529160200191611084565b820191906000526020600020905b81548152906001019060200180831161106757829003601f168201915b5050505050905093509350935093506118eb565b6110d7856040805190810160405280600581526020017f4d696e65720000000000000000000000000000000000000000000000000000008152506118f4565b1561135e576001868154811015156110eb57fe5b906000526020600020906004020160000160009054906101000a900473ffffffffffffffffffffffffffffffffffffffff1660018781548110151561112c57fe5b906000526020600020906004020160010160018881548110151561114c57fe5b906000526020600020906004020160020160018981548110151561116c57fe5b9060005260206000209060040201600301828054600181600116156101000203166002900480601f0160208091040260200160405190810160405280929190818152602001828054600181600116156101000203166002900480156112125780601f106111e757610100808354040283529160200191611212565b820191906000526020600020905b8154815290600101906020018083116111f557829003601f168201915b50505050509250818054600181600116156101000203166002900480601f0160208091040260200160405190810160405280929190818152602001828054600181600116156101000203166002900480156112ae5780601f10611283576101008083540402835291602001916112ae565b820191906000526020600020905b81548152906001019060200180831161129157829003601f168201915b50505050509150808054600181600116156101000203166002900480601f01602080910402602001604051908101604052809291908181526020018280546001816001161561010002031660029004801561134a5780601f1061131f5761010080835404028352916020019161134a565b820191906000526020600020905b81548152906001019060200180831161132d57829003601f168201915b5050505050905093509350935093506118eb565b61139d856040805190810160405280600581526020017f546f6b656e0000000000000000000000000000000000000000000000000000008152506118f4565b15611624576004868154811015156113b157fe5b906000526020600020906004020160000160009054906101000a900473ffffffffffffffffffffffffffffffffffffffff166004878154811015156113f257fe5b906000526020600020906004020160010160048881548110151561141257fe5b906000526020600020906004020160020160048981548110151561143257fe5b9060005260206000209060040201600301828054600181600116156101000203166002900480601f0160208091040260200160405190810160405280929190818152602001828054600181600116156101000203166002900480156114d85780601f106114ad576101008083540402835291602001916114d8565b820191906000526020600020905b8154815290600101906020018083116114bb57829003601f168201915b50505050509250818054600181600116156101000203166002900480601f0160208091040260200160405190810160405280929190818152602001828054600181600116156101000203166002900480156115745780601f1061154957610100808354040283529160200191611574565b820191906000526020600020905b81548152906001019060200180831161155757829003601f168201915b50505050509150808054600181600116156101000203166002900480601f0160208091040260200160405190810160405280929190818152602001828054600181600116156101000203166002900480156116105780601f106115e557610100808354040283529160200191611610565b820191906000526020600020905b8154815290600101906020018083116115f357829003601f168201915b5050505050905093509350935093506118eb565b611663856040805190810160405280600481526020017f44617070000000000000000000000000000000000000000000000000000000008152506118f4565b156118ea5760038681548110151561167757fe5b906000526020600020906004020160000160009054906101000a900473ffffffffffffffffffffffffffffffffffffffff166003878154811015156116b857fe5b90600052602060002090600402016001016003888154811015156116d857fe5b90600052602060002090600402016002016003898154811015156116f857fe5b9060005260206000209060040201600301828054600181600116156101000203166002900480601f01602080910402602001604051908101604052809291908181526020018280546001816001161561010002031660029004801561179e5780601f106117735761010080835404028352916020019161179e565b820191906000526020600020905b81548152906001019060200180831161178157829003601f168201915b50505050509250818054600181600116156101000203166002900480601f01602080910402602001604051908101604052809291908181526020018280546001816001161561010002031660029004801561183a5780601f1061180f5761010080835404028352916020019161183a565b820191906000526020600020905b81548152906001019060200180831161181d57829003601f168201915b50505050509150808054600181600116156101000203166002900480601f0160208091040260200160405190810160405280929190818152602001828054600181600116156101000203166002900480156118d65780601f106118ab576101008083540402835291602001916118d6565b820191906000526020600020905b8154815290600101906020018083116118b957829003601f168201915b5050505050905093509350935093506118eb565b5b92959194509250565b6000816040518082805190602001908083835b60208310151561192c5780518252602082019150602081019050602083039250611907565b6001836020036101000a038019825116818451168082178552505050505050905001915050604051809103902060001916836040518082805190602001908083835b602083101515611993578051825260208201915060208101905060208303925061196e565b6001836020036101000a03801982511681845116808217855250505050505090500191505060405180910390206000191614905092915050565b828054600181600116156101000203166002900490600052602060002090601f016020900481019282601f10611a0e57805160ff1916838001178555611a3c565b82800160010185558215611a3c579182015b82811115611a3b578251825591602001919060010190611a20565b5b509050611a499190611a4d565b5090565b611a6f91905b80821115611a6b576000816000905550600101611a53565b5090565b905600a165627a7a723058202d3fedbe7035322431b369f9a484ac655c00cbe3b7bf46901117d7a9c3ece67e0029",
  "source": "contract AddressBook {\n\n    struct domainName {\n        address addr;\n        string domain;\n        string _type;\n        string description;\n    }\n\n    domainName[] exchangeBook;\n    domainName[] minerBook;\n    domainName[] userBook;\n    domainName[] dappBook;\n    domainName[] tokenBook;\n\n    //registerName(0x14723a09acff6d2a60dcdf7aa4aff308fddc160c, \"test.eth\", \"Test data\", \"User\");\n\n\n    //register address as a domain\n    function registerName(address _newAddress, string dName, string _despriction, string __type)  returns (uint256) {\n\n        if(compareStrings(__type, \"User\")){\n             userBook.push(domainName(_newAddress, dName, __type,_despriction ));\n             return userBook.length;\n         } else if(compareStrings(__type, \"Exchange\")){\n             exchangeBook.push(domainName(_newAddress, dName, __type,_despriction ));\n             return exchangeBook.length;\n         }else if(compareStrings(__type, \"Miner\")){\n             minerBook.push(domainName(_newAddress, dName, __type,_despriction ));\n             return minerBook.length;\n         }else if(compareStrings(__type, \"Token\")){\n             tokenBook.push(domainName(_newAddress, dName, __type,_despriction ));\n             return tokenBook.length;\n         } else if(compareStrings(__type, \"Dapp\")){\n             dappBook.push(domainName(_newAddress, dName, __type,_despriction ));\n             return dappBook.length;\n        } else {\n            return 0;\n\n        }\n\n\n    }\n\n    //search for all domians and addresses of a certain type\n    function searchByIndex(uint256 index, string __type) returns (address, string, string, string) {\n        if(compareStrings(__type, \"User\")){\n             return (userBook[index].addr, userBook[index].domain, userBook[index]._type, userBook[index].description);\n         } else if(compareStrings(__type, \"Exchange\")){\n             return (exchangeBook[index].addr, exchangeBook[index].domain, exchangeBook[index]._type, exchangeBook[index].description);\n         }else if(compareStrings(__type, \"Miner\")){\n             return (minerBook[index].addr, minerBook[index].domain, minerBook[index]._type, minerBook[index].description);\n         }else if(compareStrings(__type, \"Token\")){\n             return (tokenBook[index].addr, tokenBook[index].domain, tokenBook[index]._type, tokenBook[index].description);\n         } else if(compareStrings(__type, \"Dapp\")){\n             return (dappBook[index].addr, dappBook[index].domain, dappBook[index]._type, dappBook[index].description);\n        } else {\n\n        }\n    }\n\n\n    function compareStrings (string a, string b) view returns (bool){\n       return keccak256(a) == keccak256(b);\n   }\n\n}\n",
  "sourcePath": "/Users/Jean/EnsGoogle/contracts/AddressBook.sol",
  "compiler": {
    "name": "solc",
    "version": "0.4.24+commit.e67f0147.Emscripten.clang"
  },
  "schemaVersion": "2.0.0",
  "updatedAt": "2018-08-22T13:51:17.151Z"
}